{
  "contractName": "BasicCrowdfunding",
  "abi": [
    {
      "constant": true,
      "inputs": [],
      "name": "beneficiary",
      "outputs": [
        {
          "name": "",
          "type": "address"
        }
      ],
      "payable": false,
      "stateMutability": "view",
      "type": "function"
    },
    {
      "constant": false,
      "inputs": [],
      "name": "withdraw",
      "outputs": [],
      "payable": false,
      "stateMutability": "nonpayable",
      "type": "function"
    },
    {
      "constant": true,
      "inputs": [],
      "name": "value",
      "outputs": [
        {
          "name": "",
          "type": "uint256"
        }
      ],
      "payable": false,
      "stateMutability": "view",
      "type": "function"
    },
    {
      "constant": true,
      "inputs": [],
      "name": "goal",
      "outputs": [
        {
          "name": "",
          "type": "uint256"
        }
      ],
      "payable": false,
      "stateMutability": "view",
      "type": "function"
    },
    {
      "constant": false,
      "inputs": [],
      "name": "claim",
      "outputs": [],
      "payable": false,
      "stateMutability": "nonpayable",
      "type": "function"
    },
    {
      "constant": true,
      "inputs": [],
      "name": "max",
      "outputs": [
        {
          "name": "",
          "type": "uint256"
        }
      ],
      "payable": false,
      "stateMutability": "view",
      "type": "function"
    },
    {
      "constant": true,
      "inputs": [
        {
          "name": "",
          "type": "address"
        }
      ],
      "name": "balanceOf",
      "outputs": [
        {
          "name": "",
          "type": "uint256"
        }
      ],
      "payable": false,
      "stateMutability": "view",
      "type": "function"
    },
    {
      "constant": true,
      "inputs": [],
      "name": "isClosed",
      "outputs": [
        {
          "name": "",
          "type": "bool"
        }
      ],
      "payable": false,
      "stateMutability": "view",
      "type": "function"
    },
    {
      "inputs": [
        {
          "name": "ifSuccessfulSendTo",
          "type": "address"
        },
        {
          "name": "goalInEther",
          "type": "uint256"
        },
        {
          "name": "maxEther",
          "type": "uint256"
        }
      ],
      "payable": false,
      "stateMutability": "nonpayable",
      "type": "constructor"
    },
    {
      "payable": true,
      "stateMutability": "payable",
      "type": "fallback"
    },
    {
      "anonymous": false,
      "inputs": [
        {
          "indexed": false,
          "name": "withdrawer",
          "type": "address"
        },
        {
          "indexed": false,
          "name": "amount",
          "type": "uint256"
        }
      ],
      "name": "FundWithdrawn",
      "type": "event"
    },
    {
      "anonymous": false,
      "inputs": [
        {
          "indexed": false,
          "name": "backer",
          "type": "address"
        },
        {
          "indexed": false,
          "name": "amount",
          "type": "uint256"
        }
      ],
      "name": "FundAdded",
      "type": "event"
    }
  ],
  "bytecode": "0x60606040526000600560006101000a81548160ff021916908315150217905550341561002a57600080fd5b60405160608061073e8339810160405280805190602001909190805190602001909190805190602001909190505082600260006101000a81548173ffffffffffffffffffffffffffffffffffffffff021916908373ffffffffffffffffffffffffffffffffffffffff1602179055508160038190555080600481905550505050610685806100b96000396000f30060606040526004361061008e576000357c0100000000000000000000000000000000000000000000000000000000900463ffffffff16806338af3eed146101805780633ccfd60b146101d55780633fa4f245146101ea57806340193883146102135780634e71d92d1461023c5780636ac5db191461025157806370a082311461027a578063c2b6b58c146102c7575b6000803411151561009e57600080fd5b6004546000543401111515156100b357600080fd5b34905080600160003373ffffffffffffffffffffffffffffffffffffffff1673ffffffffffffffffffffffffffffffffffffffff168152602001908152602001600020600082825401925050819055508060008082825401925050819055507f558a436a9db526ac67ef37696ad60895448e3776371a4de56e785768716a27b83382604051808373ffffffffffffffffffffffffffffffffffffffff1673ffffffffffffffffffffffffffffffffffffffff1681526020018281526020019250505060405180910390a150005b341561018b57600080fd5b6101936102f4565b604051808273ffffffffffffffffffffffffffffffffffffffff1673ffffffffffffffffffffffffffffffffffffffff16815260200191505060405180910390f35b34156101e057600080fd5b6101e861031a565b005b34156101f557600080fd5b6101fd6104ad565b6040518082815260200191505060405180910390f35b341561021e57600080fd5b6102266104b3565b6040518082815260200191505060405180910390f35b341561024757600080fd5b61024f6104b9565b005b341561025c57600080fd5b610264610628565b6040518082815260200191505060405180910390f35b341561028557600080fd5b6102b1600480803573ffffffffffffffffffffffffffffffffffffffff1690602001909190505061062e565b6040518082815260200191505060405180910390f35b34156102d257600080fd5b6102da610646565b604051808215151515815260200191505060405180910390f35b600260009054906101000a900473ffffffffffffffffffffffffffffffffffffffff1681565b600080600160003373ffffffffffffffffffffffffffffffffffffffff1673ffffffffffffffffffffffffffffffffffffffff1681526020019081526020016000205411151561036957600080fd5b600160003373ffffffffffffffffffffffffffffffffffffffff1673ffffffffffffffffffffffffffffffffffffffff1681526020019081526020016000205490506000600160003373ffffffffffffffffffffffffffffffffffffffff1673ffffffffffffffffffffffffffffffffffffffff168152602001908152602001600020819055508060008082825403925050819055507fa692503bc54c9f1d1483729b6058a24987097ff492084b1a8adf8cae08e4fb433382604051808373ffffffffffffffffffffffffffffffffffffffff1673ffffffffffffffffffffffffffffffffffffffff1681526020018281526020019250505060405180910390a13373ffffffffffffffffffffffffffffffffffffffff166108fc829081150290604051600060405180830381858888f1935050505015156104aa57600080fd5b50565b60005481565b60035481565b6000600260009054906101000a900473ffffffffffffffffffffffffffffffffffffffff1673ffffffffffffffffffffffffffffffffffffffff163373ffffffffffffffffffffffffffffffffffffffff1614151561051757600080fd5b6003546000541015151561052a57600080fd5b6000549050600080819055507fa692503bc54c9f1d1483729b6058a24987097ff492084b1a8adf8cae08e4fb43600260009054906101000a900473ffffffffffffffffffffffffffffffffffffffff1682604051808373ffffffffffffffffffffffffffffffffffffffff1673ffffffffffffffffffffffffffffffffffffffff1681526020018281526020019250505060405180910390a1600260009054906101000a900473ffffffffffffffffffffffffffffffffffffffff1673ffffffffffffffffffffffffffffffffffffffff166108fc829081150290604051600060405180830381858888f19350505050151561062557600080fd5b50565b60045481565b60016020528060005260406000206000915090505481565b600560009054906101000a900460ff16815600a165627a7a723058209ffbca1cce716241d5fc51fb56a098e2ef6d2fc9dc0ac70de77acc319fb369af0029",
  "source": "pragma solidity ^0.4.15;\n\n/**\n\tVery basic crowdfunding\n\tAllows people to throw in ether\n**/\ncontract BasicCrowdfunding {\n\tuint public value;\n    mapping (address => uint256) public balanceOf;\n\n    address public beneficiary;\n    uint public goal;\n    uint public max;\n\n    bool public isClosed = false;\n\n    event FundWithdrawn(address withdrawer, uint amount);\n    event FundAdded(address backer, uint amount);\n    \n    function BasicCrowdfunding(address ifSuccessfulSendTo, uint goalInEther, uint maxEther) public {\n\t    beneficiary = ifSuccessfulSendTo;\n\t    goal = goalInEther;\n\t    max = maxEther;\n\n\t    // Todo: Can we make sure that the max is more then the goal?\n\t}\n\n\tfunction () payable public {\n\t\trequire(msg.value > 0);\n\t\trequire(msg.value + value <= max);\n\n\t\tuint amount = msg.value;\n\t\tbalanceOf[msg.sender] += amount;\n\t\tvalue += amount;\n\n\t\tFundAdded(msg.sender, amount);\n\t}\n\n\tfunction withdraw() public {\n\t\t// Todo: Only allow claiming when the crowdfunding is still ongoing\n\n\t\t// Conditions\n\t\trequire(balanceOf[msg.sender] > 0);\n\n\t\t// Effects\n\t\tuint amount = balanceOf[msg.sender];\n\t\tbalanceOf[msg.sender] = 0;\n\t\tvalue -= amount;\n\n\t\tFundWithdrawn(msg.sender, amount);\n\n\t\t// Interactions\t\t\n\t\tmsg.sender.transfer(amount);\n\t}\n\n\tfunction claim() public {\n\t\t// Todo: Only allow claiming when crowdfund is over\n\n\t    // Conditions\n\t\trequire(msg.sender == beneficiary);\n\t\trequire(value >= goal);\n\n        // Effects\n\t\tuint valueToTransfer = value;\n\t\tvalue = 0;\n\t\t\n\t\tFundWithdrawn(beneficiary, valueToTransfer);\n\n        // Interactions\n\t\tbeneficiary.transfer(valueToTransfer);\n\t}\n}",
  "sourcePath": "/Users/boyd/Code/BlockchainPrototype/contracts/basicCrowdfunding.sol",
  "compiler": {
    "name": "solc",
    "version": "0.4.18+commit.9cf6e910.Emscripten.clang"
  },
  "schemaVersion": "1.0.1",
  "updatedAt": "2018-01-09T10:09:13.017Z"
}