{
  "contractName": "SolarParkFunding",
  "abi": [
    {
      "constant": true,
      "inputs": [],
      "name": "value",
      "outputs": [
        {
          "name": "",
          "type": "uint256"
        }
      ],
      "payable": false,
      "stateMutability": "view",
      "type": "function"
    },
    {
      "constant": true,
      "inputs": [],
      "name": "goal",
      "outputs": [
        {
          "name": "",
          "type": "uint256"
        }
      ],
      "payable": false,
      "stateMutability": "view",
      "type": "function"
    },
    {
      "constant": true,
      "inputs": [
        {
          "name": "",
          "type": "address"
        }
      ],
      "name": "balanceOf",
      "outputs": [
        {
          "name": "",
          "type": "uint256"
        }
      ],
      "payable": false,
      "stateMutability": "view",
      "type": "function"
    },
    {
      "constant": true,
      "inputs": [],
      "name": "tokenAddress",
      "outputs": [
        {
          "name": "",
          "type": "address"
        }
      ],
      "payable": false,
      "stateMutability": "view",
      "type": "function"
    },
    {
      "constant": false,
      "inputs": [],
      "name": "contribute",
      "outputs": [],
      "payable": true,
      "stateMutability": "payable",
      "type": "function"
    },
    {
      "constant": true,
      "inputs": [],
      "name": "participantsCount",
      "outputs": [
        {
          "name": "",
          "type": "uint256"
        }
      ],
      "payable": false,
      "stateMutability": "view",
      "type": "function"
    },
    {
      "constant": true,
      "inputs": [],
      "name": "min",
      "outputs": [
        {
          "name": "",
          "type": "uint256"
        }
      ],
      "payable": false,
      "stateMutability": "view",
      "type": "function"
    },
    {
      "inputs": [
        {
          "name": "tokenAddr",
          "type": "address"
        },
        {
          "name": "goalInWei",
          "type": "uint256"
        },
        {
          "name": "minWei",
          "type": "uint256"
        }
      ],
      "payable": false,
      "stateMutability": "nonpayable",
      "type": "constructor"
    },
    {
      "payable": true,
      "stateMutability": "payable",
      "type": "fallback"
    },
    {
      "anonymous": false,
      "inputs": [
        {
          "indexed": false,
          "name": "backer",
          "type": "address"
        },
        {
          "indexed": false,
          "name": "amount",
          "type": "uint256"
        }
      ],
      "name": "FundAdded",
      "type": "event"
    }
  ],
  "bytecode": "0x6060604052341561000f57600080fd5b6040516060806107448339810160405280805190602001909190805190602001909190805190602001909190505082600260006101000a81548173ffffffffffffffffffffffffffffffffffffffff021916908373ffffffffffffffffffffffffffffffffffffffff16021790555081600381905550806004819055505050506106a68061009e6000396000f300606060405260043610610083576000357c0100000000000000000000000000000000000000000000000000000000900463ffffffff1680633fa4f2451461027e57806340193883146102a757806370a08231146102d05780639d76ea581461031d578063d7bb99ba14610372578063dd60c8981461037c578063f8897945146103a5575b600080600454341015151561009757600080fd5b6003543460005401111515156100ac57600080fd5b6000600454838115156100bb57fe5b061415156100c857600080fd5b34915081600160003373ffffffffffffffffffffffffffffffffffffffff1673ffffffffffffffffffffffffffffffffffffffff16815260200190815260200160002060008282540192505081905550816000808282540192505081905550600260009054906101000a900473ffffffffffffffffffffffffffffffffffffffff1690508073ffffffffffffffffffffffffffffffffffffffff16635d8a776e336004548581151561017657fe5b046040518363ffffffff167c0100000000000000000000000000000000000000000000000000000000028152600401808373ffffffffffffffffffffffffffffffffffffffff1673ffffffffffffffffffffffffffffffffffffffff16815260200182815260200192505050600060405180830381600087803b15156101fb57600080fd5b6102c65a03f1151561020c57600080fd5b5050507f558a436a9db526ac67ef37696ad60895448e3776371a4de56e785768716a27b83383604051808373ffffffffffffffffffffffffffffffffffffffff1673ffffffffffffffffffffffffffffffffffffffff1681526020018281526020019250505060405180910390a15050005b341561028957600080fd5b6102916103ce565b6040518082815260200191505060405180910390f35b34156102b257600080fd5b6102ba6103d4565b6040518082815260200191505060405180910390f35b34156102db57600080fd5b610307600480803573ffffffffffffffffffffffffffffffffffffffff169060200190919050506103da565b6040518082815260200191505060405180910390f35b341561032857600080fd5b6103306103f2565b604051808273ffffffffffffffffffffffffffffffffffffffff1673ffffffffffffffffffffffffffffffffffffffff16815260200191505060405180910390f35b61037a610418565b005b341561038757600080fd5b61038f61066e565b6040518082815260200191505060405180910390f35b34156103b057600080fd5b6103b8610674565b6040518082815260200191505060405180910390f35b60005481565b60035481565b60016020528060005260406000206000915090505481565b600260009054906101000a900473ffffffffffffffffffffffffffffffffffffffff1681565b600080600454341015151561042c57600080fd5b60035434600054011115151561044157600080fd5b60006004548381151561045057fe5b0614151561045d57600080fd5b6000600160003373ffffffffffffffffffffffffffffffffffffffff1673ffffffffffffffffffffffffffffffffffffffff1681526020019081526020016000205414156104b8576005600081548092919060010191905055505b34915081600160003373ffffffffffffffffffffffffffffffffffffffff1673ffffffffffffffffffffffffffffffffffffffff16815260200190815260200160002060008282540192505081905550816000808282540192505081905550600260009054906101000a900473ffffffffffffffffffffffffffffffffffffffff1690508073ffffffffffffffffffffffffffffffffffffffff16635d8a776e336004548581151561056657fe5b046040518363ffffffff167c0100000000000000000000000000000000000000000000000000000000028152600401808373ffffffffffffffffffffffffffffffffffffffff1673ffffffffffffffffffffffffffffffffffffffff16815260200182815260200192505050600060405180830381600087803b15156105eb57600080fd5b6102c65a03f115156105fc57600080fd5b5050507f558a436a9db526ac67ef37696ad60895448e3776371a4de56e785768716a27b83383604051808373ffffffffffffffffffffffffffffffffffffffff1673ffffffffffffffffffffffffffffffffffffffff1681526020018281526020019250505060405180910390a15050565b60055481565b600454815600a165627a7a723058200cdc78bd45e64152bb3549d83340db0fce29ff8fb093808560b80e0ec96c00d50029",
  "source": "pragma solidity ^0.4.15;\n\nimport './SolarToken.sol';\n\n/**\n * @title SolarParkFunding\n * @dev Very basic contract for getting tokens for funding. Many features are kept out because this is not our focus. Just the way of gaining the tokens.\n*/\ncontract SolarParkFunding {\n  uint public value;\n\n  mapping (address => uint256) public balanceOf;\n\n  address public tokenAddress;\n  // Goal is also the max\n  uint public goal;\n  uint public min;\n\n  uint public participantsCount;\n\n  event FundAdded(address backer, uint amount);\n\n  function SolarParkFunding(address tokenAddr, uint goalInWei, uint minWei) public {\n    tokenAddress = tokenAddr;\n    goal = goalInWei;\n    min = minWei;\n  }\n\n  function () payable public {\n    require(msg.value >= min);\n    require(value + msg.value <= goal);\n    require(amount % min == 0);\n\n    uint amount = msg.value;\n    balanceOf[msg.sender] += amount;\n    value += amount;\n\n    SolarToken token = SolarToken(tokenAddress);\n    token.award(msg.sender, amount / min);\n\n    FundAdded(msg.sender, amount);\n  }\n\n  function contribute() payable public {\n    require(msg.value >= min);\n    require(value + msg.value <= goal);\n    require(amount % min == 0);\n\n    if (balanceOf[msg.sender] == 0) {\n      participantsCount++;\n    }\n\n    uint amount = msg.value;\n    balanceOf[msg.sender] += amount;\n    value += amount;\n\n    SolarToken token = SolarToken(tokenAddress);\n    token.award(msg.sender, amount / min);\n\n    FundAdded(msg.sender, amount);\n  }\n}",
  "sourcePath": "/Users/boyd/Code/BlockchainPrototype/contracts/SolarParkFunding.sol",
  "compiler": {
    "name": "solc",
    "version": "0.4.18+commit.9cf6e910.Emscripten.clang"
  },
  "schemaVersion": "1.0.1",
  "updatedAt": "2018-01-09T10:16:54.454Z"
}