{
  "contractName": "SolarParkFunding",
  "abi": [
    {
      "constant": true,
      "inputs": [],
      "name": "value",
      "outputs": [
        {
          "name": "",
          "type": "uint256"
        }
      ],
      "payable": false,
      "stateMutability": "view",
      "type": "function"
    },
    {
      "constant": true,
      "inputs": [],
      "name": "goal",
      "outputs": [
        {
          "name": "",
          "type": "uint256"
        }
      ],
      "payable": false,
      "stateMutability": "view",
      "type": "function"
    },
    {
      "constant": true,
      "inputs": [
        {
          "name": "",
          "type": "address"
        }
      ],
      "name": "balanceOf",
      "outputs": [
        {
          "name": "",
          "type": "uint256"
        }
      ],
      "payable": false,
      "stateMutability": "view",
      "type": "function"
    },
    {
      "constant": true,
      "inputs": [],
      "name": "tokenAddress",
      "outputs": [
        {
          "name": "",
          "type": "address"
        }
      ],
      "payable": false,
      "stateMutability": "view",
      "type": "function"
    },
    {
      "constant": false,
      "inputs": [],
      "name": "contribute",
      "outputs": [],
      "payable": true,
      "stateMutability": "payable",
      "type": "function"
    },
    {
      "constant": true,
      "inputs": [],
      "name": "participantsCount",
      "outputs": [
        {
          "name": "",
          "type": "uint256"
        }
      ],
      "payable": false,
      "stateMutability": "view",
      "type": "function"
    },
    {
      "constant": true,
      "inputs": [],
      "name": "min",
      "outputs": [
        {
          "name": "",
          "type": "uint256"
        }
      ],
      "payable": false,
      "stateMutability": "view",
      "type": "function"
    },
    {
      "inputs": [
        {
          "name": "tokenAddr",
          "type": "address"
        },
        {
          "name": "goalInWei",
          "type": "uint256"
        },
        {
          "name": "minWei",
          "type": "uint256"
        }
      ],
      "payable": false,
      "stateMutability": "nonpayable",
      "type": "constructor"
    },
    {
      "payable": true,
      "stateMutability": "payable",
      "type": "fallback"
    },
    {
      "anonymous": false,
      "inputs": [
        {
          "indexed": false,
          "name": "backer",
          "type": "address"
        },
        {
          "indexed": false,
          "name": "amount",
          "type": "uint256"
        }
      ],
      "name": "FundAdded",
      "type": "event"
    }
  ],
  "bytecode": "0x6060604052341561000f57600080fd5b6040516060806106f48339810160405280805190602001909190805190602001909190805190602001909190505082600260006101000a81548173ffffffffffffffffffffffffffffffffffffffff021916908373ffffffffffffffffffffffffffffffffffffffff16021790555081600381905550806004819055505050506106568061009e6000396000f300606060405260043610610083576000357c0100000000000000000000000000000000000000000000000000000000900463ffffffff1680633fa4f24514610256578063401938831461027f57806370a08231146102a85780639d76ea58146102f5578063d7bb99ba1461034a578063dd60c89814610354578063f88979451461037d575b600080600454341015151561009757600080fd5b6003543460005401111515156100ac57600080fd5b34915081600160003373ffffffffffffffffffffffffffffffffffffffff1673ffffffffffffffffffffffffffffffffffffffff16815260200190815260200160002060008282540192505081905550816000808282540192505081905550600260009054906101000a900473ffffffffffffffffffffffffffffffffffffffff1690508073ffffffffffffffffffffffffffffffffffffffff16635d8a776e3360016040518363ffffffff167c0100000000000000000000000000000000000000000000000000000000028152600401808373ffffffffffffffffffffffffffffffffffffffff1673ffffffffffffffffffffffffffffffffffffffff16815260200182815260200192505050600060405180830381600087803b15156101d357600080fd5b6102c65a03f115156101e457600080fd5b5050507f558a436a9db526ac67ef37696ad60895448e3776371a4de56e785768716a27b83383604051808373ffffffffffffffffffffffffffffffffffffffff1673ffffffffffffffffffffffffffffffffffffffff1681526020018281526020019250505060405180910390a15050005b341561026157600080fd5b6102696103a6565b6040518082815260200191505060405180910390f35b341561028a57600080fd5b6102926103ac565b6040518082815260200191505060405180910390f35b34156102b357600080fd5b6102df600480803573ffffffffffffffffffffffffffffffffffffffff169060200190919050506103b2565b6040518082815260200191505060405180910390f35b341561030057600080fd5b6103086103ca565b604051808273ffffffffffffffffffffffffffffffffffffffff1673ffffffffffffffffffffffffffffffffffffffff16815260200191505060405180910390f35b6103526103f0565b005b341561035f57600080fd5b61036761061e565b6040518082815260200191505060405180910390f35b341561038857600080fd5b610390610624565b6040518082815260200191505060405180910390f35b60005481565b60035481565b60016020528060005260406000206000915090505481565b600260009054906101000a900473ffffffffffffffffffffffffffffffffffffffff1681565b600080600454341015151561040457600080fd5b60035434600054011115151561041957600080fd5b6000600160003373ffffffffffffffffffffffffffffffffffffffff1673ffffffffffffffffffffffffffffffffffffffff168152602001908152602001600020541415610474576005600081548092919060010191905055505b34915081600160003373ffffffffffffffffffffffffffffffffffffffff1673ffffffffffffffffffffffffffffffffffffffff16815260200190815260200160002060008282540192505081905550816000808282540192505081905550600260009054906101000a900473ffffffffffffffffffffffffffffffffffffffff1690508073ffffffffffffffffffffffffffffffffffffffff16635d8a776e3360016040518363ffffffff167c0100000000000000000000000000000000000000000000000000000000028152600401808373ffffffffffffffffffffffffffffffffffffffff1673ffffffffffffffffffffffffffffffffffffffff16815260200182815260200192505050600060405180830381600087803b151561059b57600080fd5b6102c65a03f115156105ac57600080fd5b5050507f558a436a9db526ac67ef37696ad60895448e3776371a4de56e785768716a27b83383604051808373ffffffffffffffffffffffffffffffffffffffff1673ffffffffffffffffffffffffffffffffffffffff1681526020018281526020019250505060405180910390a15050565b60055481565b600454815600a165627a7a723058203f35585e1a58bffbbe796c17f3641dfac96c770bab2463d8265c294a2621f1e50029",
  "source": "pragma solidity ^0.4.15;\n\nimport './SolarToken.sol';\n\n/**\n * @title SolarParkFunding\n * @dev Very basic contract for getting tokens for funding. Many features are kept out because this is not our focus. Just the way of gaining the tokens.\n*/\ncontract SolarParkFunding {\n  uint public value;\n\n  mapping (address => uint256) public balanceOf;\n\n  address public tokenAddress;\n  // Goal is also the max\n  uint public goal;\n  uint public min;\n\n  uint public participantsCount;\n\n  event FundAdded(address backer, uint amount);\n\n  function SolarParkFunding(address tokenAddr, uint goalInWei, uint minWei) public {\n    tokenAddress = tokenAddr;\n    goal = goalInWei;\n    min = minWei;\n  }\n\n  function () payable public {\n    require(msg.value >= min);\n    require(value + msg.value <= goal);\n\n    uint amount = msg.value;\n    balanceOf[msg.sender] += amount;\n    value += amount;\n\n    SolarToken token = SolarToken(tokenAddress);\n    token.award(msg.sender, 1);\n\n    FundAdded(msg.sender, amount);\n  }\n\n  function contribute() payable public {\n    require(msg.value >= min);\n    require(value + msg.value <= goal);\n\n    if (balanceOf[msg.sender] == 0) {\n      participantsCount++;\n    }\n\n    uint amount = msg.value;\n    balanceOf[msg.sender] += amount;\n    value += amount;\n\n    SolarToken token = SolarToken(tokenAddress);\n    token.award(msg.sender, 1);\n\n    FundAdded(msg.sender, amount);\n  }\n}",
  "sourcePath": "/Users/boyd/Code/BlockchainPrototype/contracts/SolarParkFunding.sol",
  "compiler": {
    "name": "solc",
    "version": "0.4.18+commit.9cf6e910.Emscripten.clang"
  },
  "schemaVersion": "1.0.1",
  "updatedAt": "2017-12-11T14:48:13.629Z"
}